{
    "contractName": "ApprovalContract",
    "abi": [
        {
            "inputs": [],
            "name": "approve",
            "outputs": [],
            "stateMutability": "nonpayable",
            "type": "function"
        },
        {
            "inputs": [],
            "name": "approver",
            "outputs": [
                {
                    "internalType": "address",
                    "name": "",
                    "type": "address"
                }
            ],
            "stateMutability": "view",
            "type": "function"
        },
        {
            "inputs": [
                {
                    "internalType": "address payable",
                    "name": "_receiver",
                    "type": "address"
                }
            ],
            "name": "deposit",
            "outputs": [],
            "stateMutability": "payable",
            "type": "function"
        },
        {
            "inputs": [],
            "name": "receiver",
            "outputs": [
                {
                    "internalType": "address payable",
                    "name": "",
                    "type": "address"
                }
            ],
            "stateMutability": "view",
            "type": "function"
        },
        {
            "inputs": [],
            "name": "sender",
            "outputs": [
                {
                    "internalType": "address",
                    "name": "",
                    "type": "address"
                }
            ],
            "stateMutability": "view",
            "type": "function"
        },
        {
            "inputs": [],
            "name": "viewApprover",
            "outputs": [
                {
                    "internalType": "address",
                    "name": "",
                    "type": "address"
                }
            ],
            "stateMutability": "pure",
            "type": "function"
        }
    ],
    "bytecode": "608060405234801561001057600080fd5b506102ac806100206000396000f3fe6080604052600436106100555760003560e01c806312424e3f1461005a578063141a8dd81461007157806367e404ce146100a2578063d93ce89c146100b7578063f340fa01146100cc578063f7260d3e146100f2575b600080fd5b34801561006657600080fd5b5061006f610107565b005b34801561007d57600080fd5b506100866101a3565b604080516001600160a01b039092168252519081900360200190f35b3480156100ae57600080fd5b506100866101bb565b3480156100c357600080fd5b506100866101ca565b61006f600480360360208110156100e257600080fd5b50356001600160a01b03166101e2565b3480156100fe57600080fd5b50610086610267565b3373d516aefa17fbc6ace949bcdf2275e2c93fe8fa5214610167576040805162461bcd60e51b815260206004820152601560248201527414d95b99195c881b9bdd08185d5d1a1bdc9a5e9959605a1b604482015290519081900360640190fd5b6001546040516001600160a01b03909116904780156108fc02916000818181858888f193505050501580156101a0573d6000803e3d6000fd5b50565b73d516aefa17fbc6ace949bcdf2275e2c93fe8fa5281565b6000546001600160a01b031681565b73d516aefa17fbc6ace949bcdf2275e2c93fe8fa5290565b60003411610237576040805162461bcd60e51b815260206004820152601e60248201527f4d757374206465706f7369742061206e6f6e2d7a65726f20616d6f756e740000604482015290519081900360640190fd5b60008054336001600160a01b031991821617909155600180549091166001600160a01b0392909216919091179055565b6001546001600160a01b03168156fea2646970667358221220a6a4a490b5e3d70491860c4d39632541ccc3a8fa515e7ace3d8ac9cec5fcfcff64736f6c63430006090033",
    "sourcePath": "c:/Users/joanicka/Desktop/blockchain projects/dapp/contracts/ApprovalContract.sol",
    "compiler": {
        "name": "solc",
        "version": "0.6.9+commit.3e3065ac"
    },
    "functionHashes": {
        "approve()": "12424e3f",
        "approver()": "141a8dd8",
        "deposit(address)": "f340fa01",
        "receiver()": "f7260d3e",
        "sender()": "67e404ce",
        "viewApprover()": "d93ce89c"
    },
    "gasEstimates": {
        "creation": {
            "codeDepositCost": "136800",
            "executionCost": "183",
            "totalCost": "136983"
        },
        "external": {
            "approve()": "infinite",
            "approver()": "219",
            "deposit(address)": "41969",
            "receiver()": "1125",
            "sender()": "1059",
            "viewApprover()": "263"
        }
    }
}